:100000000C9446000C9465000C9465000C946500FB
:100010000C9465000C9465000C9465000C946500CC
:100020000C9465000C9465000C9465000C946500BC
:100030000C9465000C94DE000C9465000C94650033
:100040000C9465000C9465000C9465000C9465009C
:100050000C9465000C9465000C9465000C9465008C
:100060000C9465000C9465000C9465000C9465007C
:100070000C9465000C9465000C9465000C9465006C
:100080000C9465000C9465000C94650011241FBE4F
:10009000CFEFD0E4DEBFCDBF11E0A0E0B1E0EEEEE7
:1000A000F4E000E00BBF02C007900D92A231B1074F
:1000B000D9F721E0A2E1B1E001C01D92AD31B20754
:1000C000E1F70E946E010C9475020C940000CF932E
:1000D000DF9300D01F92CDB7DEB789837B836A831D
:1000E00089818A3031F48A819B81BC018DE00E9434
:1000F000670080EC90E0FC018081882F90E08072A6
:100100009927892BB1F386EC90E02981FC012083AB
:1001100080E090E00F900F900F90DF91CF910895C5
:10012000CF93DF93CDB7DEB781E890E02BE0FC0101
:10013000208388E890E02DE730E0FC0131832083C4
:100140008FE690E022E0FC01208384E890E0FC014F
:100150001182108280910E0190910F01A0911001E7
:10016000B09111018093130190931401A093150194
:10017000B09316018FE590E02FE530E0F901208182
:100180002068FC0120830000DF91CF910895CF9378
:10019000DF93CDB7DEB781E890E0FC01108200006C
:1001A000DF91CF910895CF93DF93CDB7DEB781E094
:1001B000809312010000DF91CF9108951F920F925A
:1001C00000905F000F92112400905B000F922F931C
:1001D0003F934F935F936F937F938F939F93AF93CF
:1001E000BF93EF93FF93CF93DF93CDB7DEB78091AB
:1001F000130190911401A0911501B091160101977E
:10020000A109B1098093130190931401A0931501E2
:10021000B09316018091130190911401A0911501E2
:10022000B0911601892B8A2B8B2B91F40E94D3005D
:1002300080910E0190910F01A0911001B0911101D8
:100240008093130190931401A0931501B0931601AC
:100250000000DF91CF91FF91EF91BF91AF919F91FE
:100260008F917F916F915F914F913F912F910F905F
:1002700000925B000F9000925F000F901F90189506
:10028000CF93DF9300D000D0CDB7DEB769837A83F8
:100290008B839C8389819A81AB81BC8180930E0181
:1002A00090930F01A0931001B093110180910E0162
:1002B00090910F01A0911001B09111018093130151
:1002C00090931401A0931501B093160100000F90B4
:1002D0000F900F900F90DF91CF910895CF93DF9300
:1002E000CDB7DEB781E290E0FC01108282E290E0BF
:1002F0002FEFFC01208387E290E02FEFFC012083A9
:1003000088E290E0FC0110826CE271E080E090E015
:100310000E9440010E9490000E949601000080917E
:1003200012018823E1F310921201F6CFCF93DF93ED
:10033000CDB7DEB780E290E0FC01808180958093AC
:10034000180188E290E0FC01808180931701809180
:10035000190190911A018230910531F18330910594
:1003600028F4009749F0019781F052C0833091053D
:1003700051F10497B9F14CC01092170181E090E05F
:1003800090931A018093190143C080911801882F1E
:1003900090E081709927892BA1F182E090E0909301
:1003A0001A01809319012DC080911801882F90E0C7
:1003B00081709927892B39F583E090E090931A0199
:1003C0008093190120C080911801882F90E08170DE
:1003D0009927892BD1F084E090E090931A018093C3
:1003E000190113C080911801882F90E0817099271E
:1003F000892B69F481E090E090931A0180931901B0
:1004000006C0000005C0000003C0000001C00000DD
:100410008091190190911A018430910540F4823045
:10042000910550F4009751F0019719F008C0049716
:1004300031F40E94290203C0000001C0000088E2DC
:1004400090E020911701FC0120830000DF91CF9103
:100450000895CF93DF93CDB7DEB78091170188233E
:1004600051F481E08093170182E080931C0181E0C8
:1004700080931B0136C080911C01882379F0809104
:100480001B01882359F080911701880F8093170171
:1004900080911C01815080931C0123C080911C011C
:1004A000882391F080911B01882371F480911701BA
:1004B00086958093170180911C018F5F80931C01AA
:1004C00081E080931B010DC0809117018695809378
:1004D000170180911C018F5F80931C0110921B01FA
:0E04E00000C00000DF91CF910895F894FFCF87
:1004EE000000000200000000670000000000010094
:0204FE000000FC
:00000001FF
