:100000000C9454000C9473000C9473000C947300C3
:100010000C9473000C9473000C9473000C94730094
:100020000C9473000C9473000C9473000C94730084
:100030000C9473000C94EC000C9473000C947300FB
:100040000C9473000C9473000C9473000C94730064
:100050000C9473000C9473000C9473000C94730054
:100060000C9473000C9473000C9473000C94730044
:100070000C9473000C9473000C9473000C94730034
:100080000C9473000C9473000C947300CC01D30196
:10009000010228024F0256026C02DD02DD029C02C0
:1000A000A7029902B102C70211241FBECFEFD0E40C
:1000B000DEBFCDBF11E0A0E0B1E0EEEEF5E000E084
:1000C0000BBF02C007900D92A231B107D9F721E012
:1000D000A2E1B1E001C01D92AC31B207E1F70E948C
:1000E0007C010C94F5020C940000CF93DF9300D0B8
:1000F0001F92CDB7DEB789837B836A8389818A307B
:1001000031F48A819B81BC018DE00E94750080ECF6
:1001100090E0FC018081882F90E080729927892BE4
:10012000B1F386EC90E02981FC01208380E090E02F
:100130000F900F900F90DF91CF910895CF93DF93A1
:10014000CDB7DEB781E890E02BE0FC01208388E8A2
:1001500090E02DE730E0FC01318320838FE690E0D2
:1001600022E0FC01208384E890E0FC0111821082EF
:1001700080910E0190910F01A0911001B091110199
:100180008093130190931401A0931501B09316016D
:100190008FE590E02FE530E0F90120812068FC0137
:1001A00020830000DF91CF910895CF93DF93CDB7E7
:1001B000DEB781E890E0FC0110820000DF91CF9172
:1001C0000895CF93DF93CDB7DEB781E0809312011E
:1001D0000000DF91CF9108951F920F9200905F0071
:1001E0000F92112400905B000F922F933F934F9337
:1001F0005F936F937F938F939F93AF93BF93EF938F
:10020000FF93CF93DF93CDB7DEB780911301909129
:100210001401A0911501B09116010197A109B1092E
:100220008093130190931401A0931501B0931601CC
:100230008091130190911401A0911501B0911601C4
:10024000892B8A2B8B2B91F40E94E10080910E0167
:1002500090910F01A0911001B091110180931301B1
:1002600090931401A0931501B09316010000DF9143
:10027000CF91FF91EF91BF91AF919F918F917F911E
:100280006F915F914F913F912F910F9000925B0082
:100290000F9000925F000F901F901895CF93DF93FF
:1002A00000D000D0CDB7DEB769837A838B839C837F
:1002B00089819A81AB81BC8180930E0190930F015B
:1002C000A0931001B093110180910E0190910F0144
:1002D000A0911001B091110180931301909314012A
:1002E000A0931501B093160100000F900F900F908E
:1002F0000F90DF91CF910895CF93DF93CDB7DEB705
:1003000081E290E0FC01108282E290E02FEFFC019C
:10031000208384E290E02FEFFC01208385E290E0CF
:10032000FC01108264E670E080E090E00E944E01E3
:100330000E949E0010921A011092190187E080938A
:100340001B010E94AB010000809112018823E1F3A0
:1003500010921201F6CFCF93DF93CDB7DEB780E2D4
:1003600090E0FC01808180958093180180911901B3
:1003700090911A01CC01A0E0B0E040E050E026E00E
:1003800030E0841B950B2817390708F4BCC08A5B42
:100390009F4FFC010C94EC0281E090E090931A01D5
:1003A00080931901B0C080911801882F90E083706C
:1003B0009927019739F482E090E090931A01809395
:1003C0001901A1C080911801882F90E083709927AE
:1003D000029739F483E090E090931A018093190119
:1003E00092C080911801882F90E08370992703971D
:1003F00009F088C084E090E090931A01809319017D
:1004000082C080911801882F90E08370992703970C
:1004100039F484E090E090931A018093190173C03D
:1004200080911801882F90E083709927019749F4F3
:100430001092170185E090E090931A0180931901C2
:1004400062C081E090E090931A01809319015BC033
:1004500080911801882F90E083709927039739F4D1
:1004600084E090E090931A01809319014CC0809130
:100470001801882F90E083709927029749F4109211
:10048000170186E090E090931A01809319013BC018
:1004900081E090E090931A018093190134C081E0CB
:1004A00090E090931A01809319012DC0809118015A
:1004B000882F90E083709927019739F485E090E0C8
:1004C00090931A01809319011EC081E090E09093EF
:1004D0001A018093190117C080911801882F90E0AC
:1004E00083709927029739F486E090E090931A017F
:1004F0008093190108C081E090E090931A018093E5
:10050000190101C000008091190190911A01CC01DC
:10051000A0E0B0E040E050E026E030E0841B950B26
:100520002817390708F44EC0835B9F4FFC010C94D9
:10053000EC0210921B0146C080911B01893008F02B
:100540003EC080911B018F5F80931B0138C080915A
:100550001B018823B1F180911B01815080931B0105
:1005600030C0809117018A3061F480911B0189307D
:1005700028F480911B018F5F80931B01109217015B
:1005800021C0809117018F5F809317011BC080915C
:1005900017018A3061F480911B01882329F0809132
:1005A0001B01815080931B01109217010BC0809199
:1005B00017018F5F8093170105C0000003C0000082
:1005C00001C0000085E290E020911B01FC01208326
:1005D0000000DF91CF910895EE0FFF1F0024001C53
:0E05E0000BBE0790F691E02D0994F894FFCF22
:1005EE000000000200000000750000000000010085
:0205FE000000FB
:00000001FF
