:100000000C9458000C9477000C9477000C947700B3
:100010000C9477000C9477000C9477000C94770084
:100020000C9477000C9477000C9477000C94770074
:100030000C9477000C9477000C9477000C94770064
:100040000C9477000C9477000C9477000C94770054
:100050000C9477000C9477000C9477000C94770044
:100060000C9477000C9477000C9477000C94770034
:100070000C9477000C9477000C9477000C94770024
:100080000C9477000C9477000C947700E200F20057
:10009000020112012D01480163017E019801E20174
:1000A000E201CD01E201D301E201D701E201DB016E
:1000B00011241FBECFEFD0E4DEBFCDBF11E0A0E022
:1000C000B1E0E0EFF3E000E00BBF02C007900D925B
:1000D000AE30B107D9F721E0AEE0B1E001C01D922A
:1000E000A331B207E1F70E94A2000C94F6010C9430
:1000F0000000CF93DF9300D01F92CDB7DEB7898386
:100100007B836A8389818A3031F48A819B81BC0137
:100110008DE00E94790080EC90E0FC018081882FC6
:1001200090E080729927892BB1F386EC90E02981C9
:10013000FC01208380E090E00F900F900F90DF9102
:10014000CF910895CF93DF93CDB7DEB781E290E0F2
:10015000FC01108282E290E02FEFFC01208387E215
:1001600090E02FEFFC01208388E290E0FC011082F8
:1001700010921101109210010E94BF00FDCFCF9389
:10018000DF93CDB7DEB780E290E0FC0180818095FF
:1001900080930F0110921201809110019091110132
:1001A000CC01A0E0B0E040E050E028E030E0841B6B
:1001B000950B2817390708F4DBC08A5B9F4FFC01B9
:1001C0000C94ED0180910F01882F90E081709927A8
:1001D000892B09F4BCC081E090E0909311018093D9
:1001E0001001B5C080910F01882F90E08170992790
:1001F000892B09F0AEC082E090E0909311018093CA
:100200001001A7C080910F01882F90E0817099277D
:10021000892B09F4A0C083E090E0909311018093B2
:10022000100199C080910F01882F90E0817099276B
:10023000892B09F092C080910E01882339F082E069
:1002400090E0909311018093100187C084E090E0CA
:10025000909311018093100180C080910F01882F2D
:1002600090E081709927892B09F479C080910E0163
:10027000882339F083E090E090931101809310017E
:100280006EC085E090E0909311018093100167C0EB
:1002900080910F01882F90E081709927892B09F0B8
:1002A00060C080910E01882339F084E090E0909343
:1002B00011018093100155C086E090E090931101E8
:1002C000809310014EC080910F01882F90E08170C3
:1002D0009927892B09F447C080910E01882339F0B2
:1002E00085E090E090931101809310013CC087E07D
:1002F00090E0909311018093100135C080910F011F
:10030000882F90E081709927892B79F580910E01D3
:10031000882339F086E090E09093110180931001DA
:1003200024C088E090E090931101809310011DC0DB
:1003300080910F01882F90E081709927892BB9F067
:1003400087E090E0909311018093100110C00000AD
:100350000FC000000DC000000BC0000009C000006D
:1003600007C0000005C0000003C0000001C000007D
:100370008091100190911101CC01A0E0B0E040E02B
:1003800050E028E030E0841B950B28173907D8F09F
:10039000815B9F4FFC010C94ED0110920E0185E0F2
:1003A0008093120110C08AE0809312010CC084E196
:1003B0008093120108C081E080930E0188E280934F
:1003C000120101C0000088E290E020911201FC01BE
:1003D00020830000DF91CF910895EE0FFF1F0024CE
:1003E000001C0BBE0790F691E02D0994F894FFCF06
:0E03F000000000020000000079000000000084
:00000001FF
