:100000000C944D000C946C000C946C000C946C00DF
:100010000C946C000C946C000C946C000C946C00B0
:100020000C946C000C946C000C946C000C946C00A0
:100030000C946C000C946C000C946C000C946C0090
:100040000C946C000C946C000C946C000C946C0080
:100050000C946C000C946C000C946C000C946C0070
:100060000C946C000C946C000C946C000C946C0060
:100070000C946C000C946C000C946C000C946C0050
:100080000C946C000C946C000C946C00DD00E4008B
:1000900006011C0123013901400111241FBECFEFCD
:1000A000D0E4DEBFCDBF11E0A0E0B1E0E4E1F3E0D9
:1000B00000E00BBF02C007900D92AE30B107D9F738
:1000C00021E0AEE0B1E001C01D92A231B207E1F73C
:1000D0000E9497000C9488010C940000CF93DF934A
:1000E00000D01F92CDB7DEB789837B836A83898175
:1000F0008A3031F48A819B81BC018DE00E946E00C0
:1001000080EC90E0FC018081882F90E0807299273C
:10011000892BB1F386EC90E02981FC01208380E0FB
:1001200090E00F900F900F90DF91CF910895CF93B3
:10013000DF93CDB7DEB781E290E0FC01108282E26E
:1001400090E02FEFFC01208387E290E02FEFFC018D
:10015000208388E290E0FC0110821092100110923E
:100160000F011092110180E290E0FC0180818095E6
:1001700080930E010E94C30088E290E0209111015B
:10018000FC012083F0CFCF93DF93CDB7DEB7809112
:100190000F0190911001CC01A0E0B0E040E050E0F0
:1001A00026E030E0841B950B2817390708F474C04B
:1001B0008A5B9F4FFC010C947F0181E090E090935B
:1001C000100180930F0168C080910E01813039F4D5
:1001D00082E090E09093100180930F015DC08091C8
:1001E0000E01823039F484E090E090931001809306
:1001F0000F0152C080910E01833009F048C086E0A3
:1002000090E09093100180930F0146C080910E0101
:10021000833039F486E090E09093100180930F01D1
:1002200038C080910E018823A1F583E090E090937F
:10023000100180930F012DC081E090E09093100198
:1002400080930F0129C080910E01833039F486E03C
:1002500090E09093100180930F011DC080910E01DA
:100260008823C9F485E090E09093100180930F01FA
:1002700012C081E090E09093100180930F010CC0B8
:1002800081E090E09093100180930F0105C0000081
:1002900003C0000001C0000080910F019091100187
:1002A0008330910579F08330910500F18530910517
:1002B00099F085309105D0F0069709F01CC0109296
:1002C000110119C080911101893090F480911101C0
:1002D0008F5F809311010CC080911101882351F030
:1002E0008091110181508093110104C0000003C06E
:1002F000000001C000000000DF91CF910895EE0FD3
:10030000FF1F0024001C0BBE0790F691E02D0994FE
:04031000F894FFCF8F
:0E03140000000002000000006E00000000006B
:00000001FF
