:100000000C948B000C94AA000C94AA000C94AA00E7
:100010000C94AA000C94AA000C94AA000C94AA00B8
:100020000C94AA000C94AA000C94AA000C94AA00A8
:100030000C94AA000C94E5010C94AA000C94AA005C
:100040000C94AA000C94AA000C94AA000C94AA0088
:100050000C94AA000C94AA000C94AA000C94AA0078
:100060000C94AA000C94AA000C94AA000C94AA0068
:100070000C94AA000C94AA000C94AA000C94AA0058
:100080000C94AA000C94AA000C94AA0039039E03B5
:100090009E039E039E039E039E039E039E039E0358
:1000A0009E039E039E039E039E039E039E039E0348
:1000B0009E039E039E039E039E039E039E039E0338
:1000C0009E039E039E039E039E039E039E039E0328
:1000D0009E0393039E039E039E039E039E039E0323
:1000E0008D039E039E039E039E039E0399033F037D
:1000F00045034B03510357035D03630369036F0318
:100100009E039E039E039E039E039E039E03750310
:100110007B038103870311241FBECFEFD0E4DEBF32
:10012000CDBF11E0A0E0B1E0ECEBF9E000E00BBFE7
:1001300002C007900D92A231B107D9F721E0A2E1E8
:10014000B1E001C01D92A232B207E1F70E94AC03F8
:100150000C94DC040C940000CF93DF9300D01F922A
:10016000CDB7DEB789836A834B838B81882371F097
:100170008A81282F30E081E090E002C0880F991F2B
:100180002A95E2F7982F8981892B0EC08A81282F22
:1001900030E081E090E002C0880F991F2A95E2F7D5
:1001A000982F9095898189230F900F900F90DF9160
:1001B000CF910895CF93DF9300D0CDB7DEB7898379
:1001C0006A838A81282F30E081E090E002C0880FA6
:1001D000991F2A95E2F7982F898189230F900F9014
:1001E000DF91CF910895CF93DF93CDB7DEB72C97F2
:1001F0000FB6F894DEBF0FBECDBF6D837E838F83B5
:10020000988729873A874B875C878D819E81AF814C
:10021000B88529853A854B855C85BC01CD010E9456
:10022000B104DC01CB0189839A83AB83BC838981D0
:100230009A81AB81BC81892B8A2B8B2B29F48985F0
:100240009A85AB85BC8511C089859A85AB85BC85AF
:100250008D839E83AF83B88789819A81AB81BC816E
:1002600089879A87AB87BC87D0CFBC01CD012C96FC
:100270000FB6F894DEBF0FBECDBFDF91CF910895CA
:10028000CF93DF9300D01F92CDB7DEB789837B83F6
:100290006A8389818A3031F48A819B81BC018DE037
:1002A0000E94400180EC90E0FC018081882F90E06A
:1002B00080729927892BB1F386EC90E02981FC01AB
:1002C000208380E090E00F900F900F90DF91CF910E
:1002D0000895CF93DF9300D000D0CDB7DEB7698308
:1002E0007A838B839C8389819A81AB81BC81809343
:1002F0000E0190930F01A0931001B0931101809112
:100300000E0190910F01A0911001B0911101809305
:10031000130190931401A0931501B09316010000EE
:100320000F900F900F900F90DF91CF910895CF9382
:10033000DF93CDB7DEB781E890E02BE0FC012083AE
:1003400088E890E02DE730E0FC01318320838FE6E0
:1003500090E022E0FC01208384E890E0FC0111821F
:10036000108280910E0190910F01A0911001B09127
:1003700011018093130190931401A0931501B09380
:1003800016018FE590E02FE530E0F901208120682B
:10039000FC0120830000DF91CF910895CF93DF937C
:1003A000CDB7DEB781E890E0FC0110820000DF915C
:1003B000CF910895CF93DF93CDB7DEB781E08093DF
:1003C00012010000DF91CF9108951F920F920090CB
:1003D0005F000F92112400905B000F922F933F93C8
:1003E0004F935F936F937F938F939F93AF93BF933D
:1003F000EF93FF93CF93DF93CDB7DEB780911301D7
:1004000090911401A0911501B09116010197A109D5
:10041000B1098093130190931401A0931501B09337
:1004200016018091130190911401A0911501B091D2
:100430001601892B8A2B8B2B91F40E94DA01809173
:100440000E0190910F01A0911001B09111018093C4
:10045000130190931401A0931501B09316010000AD
:10046000DF91CF91FF91EF91BF91AF919F918F91CC
:100470007F916F915F914F913F912F910F900092DB
:100480005B000F9000925F000F901F901895CF9324
:10049000DF93CDB7DEB788E290E02FEEFC0120833A
:1004A000000086E290E0FC01808160E00E94DA00BA
:1004B000882311F481E3B8C086E290E0FC018081DA
:1004C00061E00E94DA00882311F484E3ADC086E283
:1004D00090E0FC01808162E00E94DA00882311F440
:1004E00087E3A2C086E290E0FC01808163E00E9485
:1004F000DA00882311F48AE297C088E290E02FEDB9
:10050000FC012083000086E290E0FC01808160E035
:100510000E94DA00882311F482E386C086E290E02C
:10052000FC01808161E00E94DA00882311F485E3F8
:100530007BC086E290E0FC01808162E00E94DA00EC
:10054000882311F488E370C086E290E0FC0180818A
:1005500063E00E94DA00882311F480E365C088E23A
:1005600090E02FEBFC012083000086E290E0FC018C
:10057000808160E00E94DA00882311F483E354C094
:1005800086E290E0FC01808161E00E94DA0088232D
:1005900011F486E349C086E290E0FC01808162E0CC
:1005A0000E94DA00882311F489E33EC086E290E0DD
:1005B000FC01808163E00E94DA00882311F483E269
:1005C00033C088E290E02FE7FC012083000086E240
:1005D00090E0FC01808160E00E94DA00882311F441
:1005E00081E422C086E290E0FC01808161E00E940B
:1005F000DA00882311F482E417C086E290E0FC015F
:10060000808162E00E94DA00882311F483E40CC048
:1006100086E290E0FC01808163E00E94DA0088239A
:1006200011F484E401C080E0DF91CF910895CF936D
:10063000DF9300D01F92CDB7DEB79B838A830E94E1
:10064000470289838981082E000C990B092E000C22
:10065000AA0BBB0B40E050E024E430E0841B950B78
:100660002817390708F46AC08A5B9F4FFC010C9475
:10067000D30485E290E02FE1FC01208365C085E290
:1006800090E021E0FC0120835FC085E290E022E061
:10069000FC01208359C085E290E023E0FC01208327
:1006A00053C085E290E024E0FC0120834DC085E248
:1006B00090E025E0FC01208347C085E290E026E041
:1006C000FC01208341C085E290E027E0FC0120830B
:1006D0003BC085E290E028E0FC01208335C085E244
:1006E00090E029E0FC0120832FC085E290E02AE021
:1006F000FC01208329C085E290E02BE0FC012083EF
:1007000023C085E290E02CE0FC0120831DC085E23F
:1007100090E02DE0FC01208317C085E290E02EE000
:10072000FC01208311C085E290E02FE0FC012083D2
:100730000BC085E290E0FC01108206C085E290E0EB
:100740002BE1FC012083000080E090E00F900F90EF
:100750000F90DF91CF9108950F931F93CF93DF9365
:10076000CDB7DEB727970FB6F894DEBF0FBECDBF6B
:1007700084E290E02FEFFC01208385E290E0FC0111
:10078000108287E290E020EFFC01208388E290E075
:100790002FE0FC01208387E191E09F838E8381E03D
:1007A00090E09C838B838FEF8D838D8180931701E5
:1007B00084EF91E0A0E0B0E08093180190931901DC
:1007C000A0931A01B0931B01809118019091190117
:1007D000A0911A01B0911B0180931C0190931D01FF
:1007E000A0931E01B0931F0187E193E09093210134
:1007F0008093200164EF71E080E090E00E94690145
:100800000E9497011A8219829CC089819A81880F5F
:10081000991F9E012F5F3F4F820F931F0596FC018A
:1008200080819181FC0125813681478150858981B4
:100830009A81880F991FBE016F5F7F4F860F971FA8
:100840000596FC0180819181FC0181819281A381C7
:10085000B481281739074A075B0709F045C0898129
:100860009A81880F991F9E012F5F3F4F820F931F20
:100870000596FC010081118189819A81880F991F59
:100880009E012F5F3F4F820F931F0596FC018081D1
:100890009181FC012185328589819A81880F991F78
:1008A000AE014F5F5F4F840F951F0596FC0180815D
:1008B0009181FC018081082E000C990BF9010995AA
:1008C000F801808389819A81880F991F9E012F5F8B
:1008D0003F4F820F931F0596FC0180819181FC019F
:1008E000158216821782108689819A81880F991F36
:1008F0009E012F5F3F4F820F931F0596FC012081C1
:10090000318189819A81880F991FAE014F5F5F4FB6
:10091000840F951F0596FC0180819181FC018581E2
:100920009681A781B0858C509E4FAF4FBF4FF90184
:1009300085839683A783B08789819A8101969A835C
:10094000898329813A818B819C812817390708F492
:100950005CCF0000809112018823E1F31092120114
:1009600051CFA1E21A2EAA1BBB1BFD010DC0AA1F6D
:10097000BB1FEE1FFF1FA217B307E407F50720F008
:10098000A21BB30BE40BF50B661F771F881F991F83
:100990001A9469F760957095809590959B01AC01CC
:1009A000BD01CF010895EE0FFF1F0024001C0BBEF8
:0C09B0000790F691E02D0994F894FFCF19
:1009BC0000000002000000004001000000000100E7
:0209CC00000029
:00000001FF
