:100000000C9446000C9465000C9465000C946500FB
:100010000C9465000C9465000C9465000C946500CC
:100020000C9465000C9465000C9465000C946500BC
:100030000C9465000C949B020C9465000C94650074
:100040000C9465000C9465000C9465000C9465009C
:100050000C9465000C9465000C9465000C9465008C
:100060000C9465000C9465000C9465000C9465007C
:100070000C9465000C9465000C9465000C9465006C
:100080000C9465000C9465000C94650011241FBE4F
:10009000CFEFD0E4DEBFCDBF11E0A0E0B1E0ECE1F6
:1000A000F9E000E00BBF02C007900D92AA34B1073F
:1000B000D9F721E0AAE4B1E001C01D92AF38B20740
:1000C000E1F70E9451030C948C040C940000CF9330
:1000D000DF93CDB7DEB781E00E948E000000DF9194
:1000E000CF910895CF93DF93CDB7DEB784E690E04C
:1000F0000E94320188E30E948E0086E00E948E00FA
:100100008FE00E948E0081E00E948E008AE090E0E5
:100110000E9432010000DF91CF910895CF93DF93C9
:100120001F92CDB7DEB7898385E290E025E230E00B
:10013000F90120812E7FFC0120838BE290E0298150
:10014000FC01208385E290E025E230E0F901208186
:100150002260FC012083000085E290E025E230E08F
:10016000F90120812D7FFC01208382E090E00E9434
:10017000320100000F90DF91CF910895CF93DF936C
:100180001F92CDB7DEB7898385E290E025E230E0AB
:10019000F90120812160FC0120838BE290E029811C
:1001A000FC01208385E290E025E230E0F901208126
:1001B0002260FC012083000085E290E025E230E02F
:1001C000F90120812D7FFC01208381E090E00E94D5
:1001D000320100000F90DF91CF910895CF93DF930C
:1001E00000D000D0CDB7DEB78A837C836B830E94BA
:1001F00067008A81898311C0898191E0980F998372
:100200000E941B018B819C819C012F5F3F4F3C838F
:100210002B83FC0180810E94BE008B819C81FC01AC
:100220008081882349F700000F900F900F900F9066
:10023000DF91CF910895CF93DF931F92CDB7DEB7B3
:1002400089838981813128F4898181580E948E00B7
:1002500004C0898181550E948E0000000F90DF91BB
:10026000CF910895CF93DF9300D000D000D0CDB7C9
:10027000DEB79E838D831A82198213C01C821B8273
:1002800006C000008B819C8101969C838B838B81AF
:100290009C8187309340ACF389819A8101969A833F
:1002A000898329813A818D819E812817390734F30A
:1002B000000026960FB6F894DEBF0FBECDBFDF91CB
:1002C000CF910895CF93DF9300D01F92CDB7DEB7C3
:1002D00089836A834B838B81882371F08A81282FDD
:1002E00030E081E090E002C0880F991F2A95E2F784
:1002F000982F8981892B0EC08A81282F30E081E0D8
:1003000090E002C0880F991F2A95E2F7982F9095E8
:10031000898189230F900F900F90DF91CF910895DD
:10032000CF93DF9300D0CDB7DEB789836A838A810C
:10033000282F30E081E090E002C0880F991F2A95B5
:10034000E2F7982F898189230F900F90DF91CF9149
:100350000895CF93DF93CDB7DEB72C970FB6F894FF
:10036000DEBF0FBECDBF6D837E838F8398872987C5
:100370003A874B875C878D819E81AF81B8852985BF
:100380003A854B855C85BC01CD010E945B04DC0194
:10039000CB0189839A83AB83BC8389819A81AB81AA
:1003A000BC81892B8A2B8B2B29F489859A85AB8577
:1003B000BC8511C089859A85AB85BC858D839E835C
:1003C000AF83B88789819A81AB81BC8189879A87FD
:1003D000AB87BC87D0CFBC01CD012C960FB6F8946B
:1003E000DEBF0FBECDBFDF91CF910895CF93DF93D6
:1003F00000D01F92CDB7DEB789837B836A83898162
:100400008A3031F48A819B81BC018DE00E94F60123
:1004100080EC90E0FC018081882F90E08072992729
:10042000892BB1F386EC90E02981FC01208380E0E8
:1004300090E00F900F900F90DF91CF910895CF93A0
:10044000DF9300D000D0CDB7DEB769837A838B838A
:100450009C8389819A81AB81BC8180930E019093AA
:100460000F01A0931001B093110180910E019091A2
:100470000F01A0911001B091110180934B01909355
:100480004C01A0934D01B0934E0100000F900F90CE
:100490000F900F90DF91CF910895CF93DF93CDB759
:1004A000DEB781E890E02BE0FC01208388E890E053
:1004B0002DE730E0FC01318320838FE690E022E0DD
:1004C000FC01208384E890E0FC011182108280917D
:1004D0000E0190910F01A0911001B0911101809334
:1004E0004B0190934C01A0934D01B0934E018FE5C9
:1004F00090E02FE530E0F90120812068FC012083A5
:100500000000DF91CF910895CF93DF93CDB7DEB791
:1005100081E890E0FC0110820000DF91CF91089506
:10052000CF93DF93CDB7DEB781E080934A0100001F
:10053000DF91CF9108951F920F9200905F000F926C
:10054000112400905B000F922F933F934F935F9382
:100550006F937F938F939F93AF93BF93EF93FF938B
:10056000CF93DF93CDB7DEB780914B0190914C01D3
:10057000A0914D01B0914E010197A109B10980935D
:100580004B0190934C01A0934D01B0934E0180918B
:100590004B0190914C01A0914D01B0914E01892BDE
:1005A0008A2B8B2B91F40E94900280910E019091E6
:1005B0000F01A0911001B091110180934B01909314
:1005C0004C01A0934D01B0934E010000DF91CF91FB
:1005D000FF91EF91BF91AF919F918F917F916F911B
:1005E0005F914F913F912F910F9000925B000F9080
:1005F00000925F000F901F901895CF93DF9300D06B
:10060000CDB7DEB79A83898389819A81813091053C
:1006100061F08230910571F0892B89F4109281018B
:1006200081E090E09A8389830AC082E090E09A8317
:10063000898305C081E090E09A83898300008981E5
:100640009A818130910519F0029799F023C0209189
:1006500012013091130180918101882F90E0820F67
:10066000931F40E150E0BC018FE491E00E947D04C3
:1006700011C0809181018F5F809381018091810100
:10068000863311F4109281016FE471E081E00E94E1
:10069000EE00000089819A810F900F90DF91CF9139
:1006A00008950F931F93CF93DF9300D000D000D015
:1006B000CDB7DEB784E290E02FEFFC01208385E226
:1006C00090E0FC01108287E290E020EFFC012083A3
:1006D00088E290E02FE0FC0120838AE290E02FEF97
:1006E000FC0120838BE290E0FC0110820E947200EA
:1006F00082E891E09E838D8381E090E09C838B83F0
:10070000109282018AEF90E0A0E0B0E08093830134
:1007100090938401A0938501B09386018091830119
:1007200090918401A0918501B09186018093870109
:1007300090938801A0938901B0938A018DEF92E094
:1007400090938C0180938B016AEF70E080E090E0E1
:100750000E941F020E944D021A8219829CC0898148
:100760009A81880F991F9E012F5F3F4F820F931F21
:100770000496FC0180819181FC01258136814781AD
:10078000508589819A81880F991FBE016F5F7F4FC5
:10079000860F971F0496FC0180819181FC01818165
:1007A0009281A381B481281739074A075B0709F0B2
:1007B00045C089819A81880F991F9E012F5F3F4F05
:1007C000820F931F0496FC010081118189819A8117
:1007D000880F991F9E012F5F3F4F820F931F049632
:1007E000FC0180819181FC012185328589819A817A
:1007F000880F991FAE014F5F5F4F840F951F0496BE
:10080000FC0180819181FC018081082E000C990BF4
:10081000F9010995F801808389819A81880F991FD0
:100820009E012F5F3F4F820F931F0496FC01808132
:100830009181FC01158216821782108689819A8126
:10084000880F991F9E012F5F3F4F820F931F0496C1
:10085000FC012081318189819A81880F991FAE0125
:100860004F5F5F4F840F951F0496FC01808191813B
:10087000FC0185819681A781B08586509F4FAF4F3F
:10088000BF4FF90185839683A783B08789819A81B9
:1008900001969A83898329813A818B819C812817CB
:1008A000390708F45CCF000080914A018823E1F306
:1008B00010924A0151CFA1E21A2EAA1BBB1BFD01C7
:1008C0000DC0AA1FBB1FEE1FFF1FA217B307E4072F
:1008D000F50720F0A21BB30BE40BF50B661F771F87
:1008E000881F991F1A9469F7609570958095909567
:1008F0009B01AC01BD01CF010895FB01DC0141501A
:10090000504048F001900D920020C9F701C01D929F
:0C09100041505040E0F70895F894FFCFEC
:10091C000000000200000000F601000000000100D1
:10092C000000140120202020202020202020202026
:10093C0020202020435331323042206973204C65F3
:10094C0067656E642E2E2E207761697420666F7237
:0A095C002069742044415259210023
:00000001FF
