:100000000C9446000C9465000C9465000C946500FB
:100010000C9465000C9465000C9465000C946500CC
:100020000C9465000C9465000C9465000C946500BC
:100030000C9465000C949B020C9465000C94650074
:100040000C9465000C9465000C9465000C9465009C
:100050000C9465000C9465000C9465000C9465008C
:100060000C9465000C9465000C9465000C9465007C
:100070000C9465000C9465000C9465000C9465006C
:100080000C9465000C9465000C94650011241FBE4F
:10009000CFEFD0E4DEBFCDBF11E0A0E0B1E0E0E201
:1000A000F9E000E00BBF02C007900D92AA33B10740
:1000B000D9F721E0AAE3B1E001C01D92AF34B20745
:1000C000E1F70E944E030C948E040C940000CF9331
:1000D000DF93CDB7DEB781E00E948E000000DF9194
:1000E000CF910895CF93DF93CDB7DEB784E690E04C
:1000F0000E94320188E30E948E0086E00E948E00FA
:100100008FE00E948E0081E00E948E008AE090E0E5
:100110000E9432010000DF91CF910895CF93DF93C9
:100120001F92CDB7DEB7898385E290E025E230E00B
:10013000F90120812E7FFC0120838BE290E0298150
:10014000FC01208385E290E025E230E0F901208186
:100150002260FC012083000085E290E025E230E08F
:10016000F90120812D7FFC01208382E090E00E9434
:10017000320100000F90DF91CF910895CF93DF936C
:100180001F92CDB7DEB7898385E290E025E230E0AB
:10019000F90120812160FC0120838BE290E029811C
:1001A000FC01208385E290E025E230E0F901208126
:1001B0002260FC012083000085E290E025E230E02F
:1001C000F90120812D7FFC01208381E090E00E94D5
:1001D000320100000F90DF91CF910895CF93DF930C
:1001E00000D000D0CDB7DEB78A837C836B830E94BA
:1001F00067008A81898311C0898191E0980F998372
:100200000E941B018B819C819C012F5F3F4F3C838F
:100210002B83FC0180810E94BE008B819C81FC01AC
:100220008081882349F700000F900F900F900F9066
:10023000DF91CF910895CF93DF931F92CDB7DEB7B3
:1002400089838981813128F4898181580E948E00B7
:1002500004C0898181550E948E0000000F90DF91BB
:10026000CF910895CF93DF9300D000D000D0CDB7C9
:10027000DEB79E838D831A82198213C01C821B8273
:1002800006C000008B819C8101969C838B838B81AF
:100290009C8187309340ACF389819A8101969A833F
:1002A000898329813A818D819E812817390734F30A
:1002B000000026960FB6F894DEBF0FBECDBFDF91CB
:1002C000CF910895CF93DF9300D01F92CDB7DEB7C3
:1002D00089836A834B838B81882371F08A81282FDD
:1002E00030E081E090E002C0880F991F2A95E2F784
:1002F000982F8981892B0EC08A81282F30E081E0D8
:1003000090E002C0880F991F2A95E2F7982F9095E8
:10031000898189230F900F900F90DF91CF910895DD
:10032000CF93DF9300D0CDB7DEB789836A838A810C
:10033000282F30E081E090E002C0880F991F2A95B5
:10034000E2F7982F898189230F900F90DF91CF9149
:100350000895CF93DF93CDB7DEB72C970FB6F894FF
:10036000DEBF0FBECDBF6D837E838F8398872987C5
:100370003A874B875C878D819E81AF81B8852985BF
:100380003A854B855C85BC01CD010E945D04DC0192
:10039000CB0189839A83AB83BC8389819A81AB81AA
:1003A000BC81892B8A2B8B2B29F489859A85AB8577
:1003B000BC8511C089859A85AB85BC858D839E835C
:1003C000AF83B88789819A81AB81BC8189879A87FD
:1003D000AB87BC87D0CFBC01CD012C960FB6F8946B
:1003E000DEBF0FBECDBFDF91CF910895CF93DF93D6
:1003F00000D01F92CDB7DEB789837B836A83898162
:100400008A3031F48A819B81BC018DE00E94F60123
:1004100080EC90E0FC018081882F90E08072992729
:10042000892BB1F386EC90E02981FC01208380E0E8
:1004300090E00F900F900F90DF91CF910895CF93A0
:10044000DF9300D000D0CDB7DEB769837A838B838A
:100450009C8389819A81AB81BC8180930E019093AA
:100460000F01A0931001B093110180910E019091A2
:100470000F01A0911001B091110180933B01909365
:100480003C01A0933D01B0933E0100000F900F90FE
:100490000F900F90DF91CF910895CF93DF93CDB759
:1004A000DEB781E890E02BE0FC01208388E890E053
:1004B0002DE730E0FC01318320838FE690E022E0DD
:1004C000FC01208384E890E0FC011182108280917D
:1004D0000E0190910F01A0911001B0911101809334
:1004E0003B0190933C01A0933D01B0933E018FE509
:1004F00090E02FE530E0F90120812068FC012083A5
:100500000000DF91CF910895CF93DF93CDB7DEB791
:1005100081E890E0FC0110820000DF91CF91089506
:10052000CF93DF93CDB7DEB781E080933A0100002F
:10053000DF91CF9108951F920F9200905F000F926C
:10054000112400905B000F922F933F934F935F9382
:100550006F937F938F939F93AF93BF93EF93FF938B
:10056000CF93DF93CDB7DEB780913B0190913C01F3
:10057000A0913D01B0913E010197A109B10980937D
:100580003B0190933C01A0933D01B0933E018091CB
:100590003B0190913C01A0913D01B0913E01892B1E
:1005A0008A2B8B2B91F40E94900280910E019091E6
:1005B0000F01A0911001B091110180933B01909324
:1005C0003C01A0933D01B0933E010000DF91CF912B
:1005D000FF91EF91BF91AF919F918F917F916F911B
:1005E0005F914F913F912F910F9000925B000F9080
:1005F00000925F000F901F901895CF93DF9300D06B
:10060000CDB7DEB79A83898389819A81813091053C
:1006100091F082309105A1F0892BB9F480914B01C2
:1006200090914C01BC0181E00E94EE0081E090E0DD
:100630009A8389830AC082E090E09A83898305C007
:1006400082E090E09A838983000089819A818130D9
:10065000910519F0029791F01AC0809112019091C2
:1006600013019C012F5F3F4F80914B0190914C01F2
:1006700040E150E0B9010E947F0409C080914B0124
:1006800090914C01BC0181E00E94EE000000898144
:100690009A810F900F90DF91CF9108950F931F9340
:1006A000CF93DF93CDB7DEB727970FB6F894DEBFB1
:1006B0000FBECDBF84E290E02FEFFC01208385E2E6
:1006C00090E0FC01108287E290E020EFFC012083A3
:1006D00088E290E02FE0FC0120838AE290E02FEF97
:1006E000FC0120838BE290E0FC0110820E947200EA
:1006F00080E491E09F838E8381E090E09C838B83F4
:100700008FEF8D831092400184EF91E0A0E0B0E084
:100710008093410190934201A0934301B09344011F
:100720008091410190914201A0914301B091440117
:100730008093450190934601A0934701B0934801EF
:100740008DEF92E090934A018093490164EF71E04C
:1007500080E090E00E941F020E944D021A821982DE
:100760009CC089819A81880F991F9E012F5F3F4FFE
:10077000820F931F0596FC0180819181FC012581E8
:1007800036814781508589819A81880F991FBE01E2
:100790006F5F7F4F860F971F0596FC0180819181C7
:1007A000FC0181819281A381B481281739074A070E
:1007B0005B0709F045C089819A81880F991F9E01C6
:1007C0002F5F3F4F820F931F0596FC01008111811F
:1007D00089819A81880F991F9E012F5F3F4F820F59
:1007E000931F0596FC0180819181FC012185328552
:1007F00089819A81880F991FAE014F5F5F4F840FE7
:10080000951F0596FC0180819181FC018081082E55
:10081000000C990BF9010995F801808389819A816F
:10082000880F991F9E012F5F3F4F820F931F0596E0
:10083000FC0180819181FC0115821682178210864D
:1008400089819A81880F991F9E012F5F3F4F820FE8
:10085000931F0596FC012081318189819A81880F3F
:10086000991FAE014F5F5F4F840F951F0596FC01E6
:1008700080819181FC0185819681A781B0858C5012
:100880009E4FAF4FBF4FF90185839683A783B087F3
:1008900089819A8101969A83898329813A818B8102
:1008A0009C812817390708F45CCF000080913A0139
:1008B0008823E1F310923A0151CFA1E21A2EAA1B2C
:1008C000BB1BFD010DC0AA1FBB1FEE1FFF1FA21700
:1008D000B307E407F50720F0A21BB30BE40BF50BFD
:1008E000661F771F881F991F1A9469F76095709586
:1008F000809590959B01AC01BD01CF010895FB014E
:10090000DC014150504048F001900D920020C9F7A1
:1009100001C01D9241505040E0F70895F894FFCF78
:100920000000000200000000F601000000000100CD
:1009300000001401435331323042206973204C656A
:1009400067656E642E2E2E207761697420666F7243
:0A095000206974204441525921002F
:00000001FF
