:100000000C9446000C9465000C9465000C946500FB
:100010000C9465000C9465000C9465000C946500CC
:100020000C9465000C9465000C9465000C946500BC
:100030000C9465000C94DE000C9465000C94650033
:100040000C9465000C9465000C9465000C9465009C
:100050000C9465000C9465000C9465000C9465008C
:100060000C9465000C9465000C9465000C9465007C
:100070000C9465000C9465000C9465000C9465006C
:100080000C9465000C9465000C94650011241FBE4F
:10009000CFEFD0E4DEBFCDBF11E0A0E0B1E0E6E5F8
:1000A000F8E000E00BBF02C007900D92A231B1074B
:1000B000D9F721E0A2E1B1E001C01D92AC31B20755
:1000C000E1F70E9435020C9429040C940000CF93B0
:1000D000DF9300D01F92CDB7DEB789837B836A831D
:1000E00089818A3031F48A819B81BC018DE00E9434
:1000F000670080EC90E0FC018081882F90E08072A6
:100100009927892BB1F386EC90E02981FC012083AB
:1001100080E090E00F900F900F90DF91CF910895C5
:10012000CF93DF93CDB7DEB781E890E02BE0FC0101
:10013000208388E890E02DE730E0FC0131832083C4
:100140008FE690E022E0FC01208384E890E0FC014F
:100150001182108280910E0190910F01A0911001E7
:10016000B09111018093130190931401A093150194
:10017000B09316018FE590E02FE530E0F901208182
:100180002068FC0120830000DF91CF910895CF9378
:10019000DF93CDB7DEB781E890E0FC01108200006C
:1001A000DF91CF910895CF93DF93CDB7DEB781E094
:1001B000809312010000DF91CF9108951F920F925A
:1001C00000905F000F92112400905B000F922F931C
:1001D0003F934F935F936F937F938F939F93AF93CF
:1001E000BF93EF93FF93CF93DF93CDB7DEB78091AB
:1001F000130190911401A0911501B091160101977E
:10020000A109B1098093130190931401A0931501E2
:10021000B09316018091130190911401A0911501E2
:10022000B0911601892B8A2B8B2B91F40E94D3005D
:1002300080910E0190910F01A0911001B0911101D8
:100240008093130190931401A0931501B0931601AC
:100250000000DF91CF91FF91EF91BF91AF919F91FE
:100260008F917F916F915F914F913F912F910F905F
:1002700000925B000F9000925F000F901F90189506
:10028000CF93DF9300D000D0CDB7DEB769837A83F8
:100290008B839C8389819A81AB81BC8180930E0181
:1002A00090930F01A0931001B093110180910E0162
:1002B00090910F01A0911001B09111018093130151
:1002C00090931401A0931501B093160100000F90B4
:1002D0000F900F900F90DF91CF9108950F931F9380
:1002E000CF93DF9300D000D0CDB7DEB769837A8398
:1002F0008B839C838091170190911801A091190123
:10030000B0911A019C01AD0169817A818B819C8138
:100310000E949502882309F477C020E030E0A9010B
:1003200069817A818B819C810E949502882351F496
:1003300081E990E021E930E0F90120812870FC0199
:10034000208309C081E990E021E930E0F9012081B2
:100350002360FC01208328E539E344E75FE36981FA
:100360007A818B819C810E949502882344F488E9DC
:1003700090E02FEF3FEFFC013183208334C020E079
:1003800034E244EF56E469817A818B819C810E943A
:10039000B703181634F488E990E0FC01118210824A
:1003A00022C008E910E020E030E040E053E4698139
:1003B0007A818B819C810E94BC03DC01CB019C0172
:1003C000AD0160E074E284EF9AE40E949A02DC01DD
:1003D000CB01BC01CD010E940C03DC01CB010197D4
:1003E000F8019183808384E990E0FC0111821082FE
:1003F00089819A81AB81BC81809317019093180108
:10040000A0931901B0931A0100000F900F900F9064
:100410000F90DF91CF911F910F910895CF93DF93AC
:10042000CDB7DEB780E990E020E4FC01208381E9CC
:1004300090E02BE0FC01208360E070E0CB010E94A3
:100440006E010000DF91CF910895CF93DF93CDB778
:10045000DEB780E990E0FC01108281E990E0FC01C8
:1004600010820000DF91CF910895CF93DF93CDB735
:10047000DEB784E290E02FEFFC01208385E290E07C
:10048000FC01108281E290E0FC01108282E290E0A7
:100490002FEFFC0120830E940E0268EB7BE080E0DE
:1004A00090E00E9440010E9490000E945F020000C4
:1004B000809112018823E1F310921201F6CFCF93BD
:1004C000DF93CDB7DEB780E290E0FC0180818095BC
:1004D000877080931B0180911B01813039F464EA9D
:1004E00070ED82E893E40E946E011BC080911B01B5
:1004F000823039F46BE774ED82E993E40E946E0177
:1005000010C080911B01843039F464EA70ED84EAF4
:1005100093E40E946E0105C060E070E0CB010E9490
:100520006E010000DF91CF9108950E94420308F40C
:1005300081E008950E94AE020C947D030E94760330
:1005400058F00E946F0340F029F45F3F29F00C94AB
:10055000660351110C94B1030C946C030E948E033A
:1005600068F39923B1F3552391F3951B550BBB27E2
:10057000AA2762177307840738F09F5F5F4F220F27
:10058000331F441FAA1FA9F335D00E2E3AF0E0E81E
:1005900032D091505040E695001CCAF72BD0FE2F68
:1005A00029D0660F771F881FBB1F261737074807FC
:1005B000AB07B0E809F0BB0B802DBF01FF279358B4
:1005C0005F4F3AF09E3F510578F00C9466030C940F
:1005D000B1035F3FE4F3983ED4F386957795679532
:1005E000B795F7959F5FC9F7880F911D96958795E9
:1005F00097F90895E1E0660F771F881FBB1F621708
:1006000073078407BA0720F0621B730B840BBA0BC5
:10061000EE1F88F7E09508950E9413036894B111C6
:100620000C94B10308950E94960388F09F5798F0A8
:10063000B92F9927B751B0F0E1F0660F771F881FE7
:10064000991F1AF0BA95C9F714C0B13091F00E9401
:10065000B003B1E008950C94B003672F782F88277A
:10066000B85F39F0B93FCCF3869577956795B39528
:10067000D9F73EF490958095709561957F4F8F4F97
:100680009F4F0895990F0008550FAA0BE0E8FEEF61
:1006900016161706E807F907C0F012161306E40746
:1006A000F50798F0621B730B840B950B39F40A263F
:1006B00061F0232B242B252B21F408950A2609F41D
:1006C000A140A6958FEF811D811D089597F99F6721
:1006D00080E870E060E008959FEF80EC08950024CA
:1006E0000A941616170618060906089500240A9497
:1006F00012161306140605060895092E0394000C1D
:1007000011F4882352F0BB0F40F4BF2B11F460FFAB
:1007100004C06F5F7F4F8F4F9F4F089557FD9058D4
:10072000440F551F59F05F3F71F04795880F97FBB5
:10073000991F61F09F3F79F087950895121613066F
:100740001406551FF2CF4695F1DF08C0161617069E
:100750001806991FF1CF86957105610508940895D3
:10076000E894BB2766277727CB0197F908950E9465
:10077000420308F48FEF08950E94CF030C947D0389
:100780000E946F0338F00E94760320F0952311F049
:100790000C9466030C946C0311240C94B1030E9416
:1007A0008E0370F3959FC1F3950F50E0551F629F24
:1007B000F001729FBB27F00DB11D639FAA27F00DBA
:1007C000B11DAA1F649F6627B00DA11D661F829FE1
:1007D0002227B00DA11D621F739FB00DA11D621FC6
:1007E000839FA00D611D221F749F3327A00D611DE3
:1007F000231F849F600D211D822F762F6A2F1124C5
:100800009F5750409AF0F1F088234AF0EE0FFF1FF7
:10081000BB1F661F771F881F91505040A9F79E3F4E
:10082000510580F00C9466030C94B1035F3FE4F330
:10083000983ED4F3869577956795B795F795E795A4
:100840009F5FC1F7FE2B880F911D9695879597F9AD
:060850000895F894FFCFAB
:100856000000000200000000670000000000010028
:02086600000090
:00000001FF
