:100000000C9446000C9465000C9465000C946500FB
:100010000C9465000C9465000C9465000C946500CC
:100020000C9465000C9465000C9465000C946500BC
:100030000C9465000C94DE000C9465000C94650033
:100040000C9465000C9465000C9465000C9465009C
:100050000C9465000C9465000C9465000C9465008C
:100060000C9465000C9465000C9465000C9465007C
:100070000C9465000C9465000C9465000C9465006C
:100080000C9465000C9465000C94650011241FBE4F
:10009000CFEFD0E4DEBFCDBF11E0A0E0B1E0EAEAEF
:1000A000FAE000E00BBF02C007900D92A233B10747
:1000B000D9F721E0A2E3B1E001C01D92A334B20759
:1000C000E1F70E9435020C9453050C940000CF9385
:1000D000DF9300D01F92CDB7DEB789837B836A831D
:1000E00089818A3031F48A819B81BC018DE00E9434
:1000F000670080EC90E0FC018081882F90E08072A6
:100100009927892BB1F386EC90E02981FC012083AB
:1001100080E090E00F900F900F90DF91CF910895C5
:10012000CF93DF93CDB7DEB781E890E02BE0FC0101
:10013000208388E890E02DE730E0FC0131832083C4
:100140008FE690E022E0FC01208384E890E0FC014F
:100150001182108280910E0190910F01A0911001E7
:10016000B09111018093330190933401A093350134
:10017000B09336018FE590E02FE530E0F901208162
:100180002068FC0120830000DF91CF910895CF9378
:10019000DF93CDB7DEB781E890E0FC01108200006C
:1001A000DF91CF910895CF93DF93CDB7DEB781E094
:1001B000809332010000DF91CF9108951F920F923A
:1001C00000905F000F92112400905B000F922F931C
:1001D0003F934F935F936F937F938F939F93AF93CF
:1001E000BF93EF93FF93CF93DF93CDB7DEB78091AB
:1001F000330190913401A0913501B09136010197FE
:10020000A109B1098093330190933401A093350182
:10021000B09336018091330190913401A091350162
:10022000B0913601892B8A2B8B2B91F40E94D3003D
:1002300080910E0190910F01A0911001B0911101D8
:100240008093330190933401A0933501B09336012C
:100250000000DF91CF91FF91EF91BF91AF919F91FE
:100260008F917F916F915F914F913F912F910F905F
:1002700000925B000F9000925F000F901F90189506
:10028000CF93DF9300D000D0CDB7DEB769837A83F8
:100290008B839C8389819A81AB81BC8180930E0181
:1002A00090930F01A0931001B093110180910E0162
:1002B00090910F01A0911001B09111018093330131
:1002C00090933401A0933501B093360100000F9054
:1002D0000F900F900F90DF91CF9108950F931F9380
:1002E000CF93DF9300D000D0CDB7DEB769837A8398
:1002F0008B839C838091370190913801A0913901C3
:10030000B0913A019C01AD0169817A818B819C8118
:100310000E94BF03882309F477C020E030E0A901E0
:1003200069817A818B819C810E94BF03882351F46B
:1003300081E990E021E930E0F90120812870FC0199
:10034000208309C081E990E021E930E0F9012081B2
:100350002360FC01208328E539E344E75FE36981FA
:100360007A818B819C810E94BF03882344F488E9B1
:1003700090E02FEF3FEFFC013183208334C020E079
:1003800034E244EF56E469817A818B819C810E943A
:10039000E104181634F488E990E0FC01118210821F
:1003A00022C008E910E020E030E040E053E4698139
:1003B0007A818B819C810E94E604DC01CB019C0147
:1003C000AD0160E074E284EF9AE40E94C403DC01B2
:1003D000CB01BC01CD010E943604DC01CB010197A9
:1003E000F8019183808384E990E0FC0111821082FE
:1003F00089819A81AB81BC818093370190933801C8
:10040000A0933901B0933A0100000F900F900F9024
:100410000F90DF91CF911F910F910895CF93DF93AC
:10042000CDB7DEB780E990E020E4FC01208381E9CC
:1004300090E02BE0FC01208360E070E0CB010E94A3
:100440006E010000DF91CF910895CF93DF93CDB778
:10045000DEB780E990E0FC01108281E990E0FC01C8
:1004600010820000DF91CF910895CF93DF93CDB735
:10047000DEB784E290E02FEFFC01208385E290E07C
:10048000FC01108281E290E0FC01108282E290E0A7
:100490002FEFFC0120830E940E0262E370E080E0F7
:1004A00090E00E9440010E9490001092400180E282
:1004B00090E0FC0180818095877080933B010E94D1
:1004C0006B020E94E7020000809132018823E1F371
:1004D00010923201ECCFCF93DF93CDB7DEB780918E
:1004E0003C0190913D018230910521F183309105CD
:1004F00028F4009749F0019791F046C083309105A8
:1005000021F1049769F140C080913B01813099F558
:1005100081E090E090933D0180933C012CC080915C
:100520003B01882351F582E090E090933D01809358
:100530003C0123C080913B01813009F583E090E0CC
:1005400090933D0180933C011AC080913B01882328
:10055000C1F484E090E090933D0180933C0111C090
:1005600080913B01813079F481E090E090933D01EE
:1005700080933C0108C0000007C0000005C00000D7
:1005800003C0000001C0000080913C0190913D013A
:1005900082309105B9F08330910528F4009791F0ED
:1005A000019721F010C0039741F00CC081E090E06A
:1005B00090933F0180933E0106C010923F0110923C
:1005C0003E0101C000000000DF91CF910895CF935C
:1005D000DF93CDB7DEB780913E0190913F01892B2B
:1005E00031F460E070E0CB010E946E01C4C08091E4
:1005F0004101909142018230910571F18330910562
:1006000028F4009761F0019789F04FC0843091057C
:10061000A9F18430910538F10597B9F146C081E020
:1006200090E090934201809341013FC080913B0153
:10063000823039F482E090E090934201809341014E
:100640002FC080913B01843059F584E090E0909375
:1006500042018093410124C083E090E090934201E5
:100660008093410122C080913B018823D9F481E02D
:1006700090E0909342018093410114C085E090E0A6
:10068000909342018093410110C080913B018823E7
:1006900059F481E090E0909342018093410104C0BD
:1006A000000003C0000001C0000080914101909152
:1006B00042018230910501F18330910530F40097B9
:1006C00009F454C0019721F056C0049791F14EC02F
:1006D00080914001882F90E0880F991F880F991F03
:1006E0008E5E9E4FFC0180819181A281B381BC010D
:1006F000CD010E946E013FC0809140018730C0F55E
:10070000809140018F5F8093400180914001882F4C
:1007100090E0880F991F880F991F8E5E9E4FFC01F5
:1007200080819181A281B381BC01CD010E946E01C3
:100730001FC0809140018823E9F0809140018150E1
:100740008093400180914001882F90E0880F991F8D
:10075000880F991F8E5E9E4FFC0180819181A2813E
:10076000B381BC01CD010E946E0104C0000003C032
:10077000000001C000000000DF91CF9108950E94A9
:100780006C0408F481E008950E94D8030C94A70437
:100790000E94A00458F00E94990440F029F45F3FA1
:1007A00029F00C94900451110C94DB040C949604E1
:1007B0000E94B80468F39923B1F3552391F3951B74
:1007C000550BBB27AA2762177307840738F09F5F72
:1007D0005F4F220F331F441FAA1FA9F335D00E2EDF
:1007E0003AF0E0E832D091505040E695001CCAF74C
:1007F0002BD0FE2F29D0660F771F881FBB1F26170F
:1008000037074807AB07B0E809F0BB0B802DBF01E5
:10081000FF2793585F4F3AF09E3F510578F00C94B4
:1008200090040C94DB045F3FE4F3983ED4F3869588
:1008300077956795B795F7959F5FC9F7880F911DD5
:100840009695879597F90895E1E0660F771F881FC1
:10085000BB1F621773078407BA0720F0621B730B74
:10086000840BBA0BEE1F88F7E09508950E943D04B3
:100870006894B1110C94DB0408950E94C00488F0C0
:100880009F5798F0B92F9927B751B0F0E1F0660F54
:10089000771F881F991F1AF0BA95C9F714C0B13095
:1008A00091F00E94DA04B1E008950C94DA04672F05
:1008B000782F8827B85F39F0B93FCCF386957795C4
:1008C0006795B395D9F73EF49095809570956195AD
:1008D0007F4F8F4F9F4F0895990F0008550FAA0B18
:1008E000E0E8FEEF16161706E807F907C0F0121643
:1008F0001306E407F50798F0621B730B840B950B46
:1009000039F40A2661F0232B242B252B21F408959A
:100910000A2609F4A140A6958FEF811D811D089537
:1009200097F99F6780E870E060E008959FEF80ECA2
:10093000089500240A941616170618060906089545
:1009400000240A9412161306140605060895092EAB
:100950000394000C11F4882352F0BB0F40F4BF2B1A
:1009600011F460FF04C06F5F7F4F8F4F9F4F08955A
:1009700057FD9058440F551F59F05F3F71F0479550
:10098000880F97FB991F61F09F3F79F08795089535
:10099000121613061406551FF2CF4695F1DF08C054
:1009A000161617061806991FF1CF86957105610571
:1009B00008940895E894BB2766277727CB0197F919
:1009C00008950E946C0408F48FEF08950E94F904C2
:1009D0000C94A7040E94990438F00E94A00420F00F
:1009E000952311F00C9490040C94960411240C940B
:1009F000DB040E94B80470F3959FC1F3950F50E09B
:100A0000551F629FF001729FBB27F00DB11D639FC0
:100A1000AA27F00DB11DAA1F649F6627B00DA11D66
:100A2000661F829F2227B00DA11D621F739FB00D0C
:100A3000A11D621F839FA00D611D221F749F33277C
:100A4000A00D611D231F849F600D211D822F762F15
:100A50006A2F11249F5750409AF0F1F088234AF0F2
:100A6000EE0FFF1FBB1F661F771F881F915050405E
:100A7000A9F79E3F510580F00C9490040C94DB0480
:100A80005F3FE4F3983ED4F3869577956795B795E5
:100A9000F795E7959F5FC1F7FE2B880F911D9695FF
:0A0AA000879597F90895F894FFCFA9
:100AAA0000000002000000006700000000000100D2
:100ABA000000A4D082437BD49243A4D0A443719D66
:100ACA00AE430000C4430000DC43A4F0F64300D068
:020ADA000244D4
:00000001FF
