:100000000C9446000C9465000C9465000C946500FB
:100010000C9465000C9465000C9465000C946500CC
:100020000C9465000C9465000C9465000C946500BC
:100030000C9465000C94DE000C9465000C94650033
:100040000C9465000C9465000C9465000C9465009C
:100050000C9465000C9465000C9465000C9465008C
:100060000C9465000C9465000C9465000C9465007C
:100070000C9465000C9465000C9465000C9465006C
:100080000C9465000C9465000C94650011241FBE4F
:10009000CFEFD0E4DEBFCDBF11E0A0E0B1E0ECEEE9
:1000A000F6E000E00BBF02C007900D92A231B1074D
:1000B000D9F721E0A2E1B1E001C01D92AA32B20756
:1000C000E1F70E946E010C9474030C940000CF932E
:1000D000DF9300D01F92CDB7DEB789837B836A831D
:1000E00089818A3031F48A819B81BC018DE00E9434
:1000F000670080EC90E0FC018081882F90E08072A6
:100100009927892BB1F386EC90E02981FC012083AB
:1001100080E090E00F900F900F90DF91CF910895C5
:10012000CF93DF93CDB7DEB781E890E02BE0FC0101
:10013000208388E890E02DE730E0FC0131832083C4
:100140008FE690E022E0FC01208384E890E0FC014F
:100150001182108280910E0190910F01A0911001E7
:10016000B09111018093130190931401A093150194
:10017000B09316018FE590E02FE530E0F901208182
:100180002068FC0120830000DF91CF910895CF9378
:10019000DF93CDB7DEB781E890E0FC01108200006C
:1001A000DF91CF910895CF93DF93CDB7DEB781E094
:1001B000809312010000DF91CF9108951F920F925A
:1001C00000905F000F92112400905B000F922F931C
:1001D0003F934F935F936F937F938F939F93AF93CF
:1001E000BF93EF93FF93CF93DF93CDB7DEB78091AB
:1001F000130190911401A0911501B091160101977E
:10020000A109B1098093130190931401A0931501E2
:10021000B09316018091130190911401A0911501E2
:10022000B0911601892B8A2B8B2B91F40E94D3005D
:1002300080910E0190910F01A0911001B0911101D8
:100240008093130190931401A0931501B0931601AC
:100250000000DF91CF91FF91EF91BF91AF919F91FE
:100260008F917F916F915F914F913F912F910F905F
:1002700000925B000F9000925F000F901F90189506
:10028000CF93DF9300D000D0CDB7DEB769837A83F8
:100290008B839C8389819A81AB81BC8180930E0181
:1002A00090930F01A0931001B093110180910E0162
:1002B00090910F01A0911001B09111018093130151
:1002C00090931401A0931501B093160100000F90B4
:1002D0000F900F900F90DF91CF910895CF93DF9300
:1002E000CDB7DEB781E290E0FC01108282E290E0BF
:1002F0002FEFFC01208384E290E02FEFFC012083AC
:1003000085E290E0FC011082109221011092200100
:10031000109219011092180181E080931D0161E093
:1003200070E080E090E00E9440010E94900080E236
:1003300090E0FC018081809580931B011092170151
:100340000E94B8010E941F020E9473020E9489024B
:100350000E94F30285E290E020911701FC012083C6
:100360000000809112018823E1F310921201DFCF87
:10037000CF93DF93CDB7DEB780912001909121011B
:100380008C32914009F04EC080911E0190911F0166
:100390008130910581F08130910530F082309105F6
:1003A00089F00397B1F01CC081E090E090931F01A9
:1003B00080931E0115C082E090E090931F0180930E
:1003C0001E010EC083E090E090931F0180931E01F8
:1003D00007C081E090E090931F0180931E01000010
:1003E00080911E0190911F018130910549F081306B
:1003F000910590F08230910539F0039749F00DC0D6
:1004000081E08093260109C082E08093260105C027
:1004100084E08093260101C0000010922101109217
:10042000200109C0809120019091210101969093B3
:100430002101809320010000DF91CF910895CF9397
:10044000DF93CDB7DEB78091180190911901883EF6
:100450009340E1F58091240190912501813091052F
:1004600069F08130910518F0029779F015C081E0AC
:1004700090E090932501809324010EC082E090E0EB
:10048000909325018093240107C081E090E0909330
:100490002501809324010000809124019091250181
:1004A0008130910531F08130910550F0029729F0AB
:1004B00008C088E08093270104C01092270101C082
:1004C0000000109219011092180109C080911801C2
:1004D00090911901019690931901809318010000E1
:1004E000DF91CF910895CF93DF93CDB7DEB78091A1
:1004F0002601982F9770809127018870982B809102
:100500001C018071892B809317010000DF91CF912E
:100510000895CF93DF93CDB7DEB7809122019091FC
:1005200023018130910581F08130910530F08230D6
:10053000910501F1039729F12CC081E090E090939F
:1005400023018093220125C080911B01813039F461
:1005500082E090E0909323018093220119C0809162
:100560001B018230A9F483E090E0909323018093F3
:1005700022010EC081E090E090932301809322013C
:1005800008C081E090E0909323018093220101C094
:10059000000080912201909123018230910531F079
:1005A00082309105B8F0039759F019C080911D0170
:1005B000823090F080911D01815080931D010CC00C
:1005C00080911D018A3F50F480911D018F5F8093BF
:1005D0001D0104C0000003C0000001C000000000B5
:1005E000DF91CF910895CF93DF93CDB7DEB78091A0
:1005F0002801909129018130910581F08130910588
:1006000030F082309105C9F0039731F142C081E0AA
:1006100090E090932901809328013BC080911B01B9
:100620008430A1F580911D0180931A0182E090E051
:10063000909329018093280129C080911A01882371
:1006400039F580911D0180931A0183E090E0909329
:100650002901809328011CC080911A01882379F414
:1006600080911B01843059F480911D0180931A01FF
:1006700082E090E090932901809328010AC081E0F4
:1006800090E0909329018093280103C0000001C0ED
:10069000000080912801909129018130910549F055
:1006A00081309105E0F08230910541F0039779F0B7
:1006B00017C080911D0180931A0112C080E18093C0
:1006C0001C0180911A01815080931A0109C0109277
:1006D0001C0180911A01815080931A0101C0000011
:0C06E0000000DF91CF910895F894FFCF47
:1006EC000000000200000000670000000000010094
:0206FC000000FC
:00000001FF
