:100000000C9446000C9465000C9465000C946500FB
:100010000C9465000C9465000C9465000C946500CC
:100020000C9465000C9465000C9465000C946500BC
:100030000C9465000C94DE000C9465000C94650033
:100040000C9465000C9465000C9465000C9465009C
:100050000C9465000C9465000C9465000C9465008C
:100060000C9465000C9465000C9465000C9465007C
:100070000C9465000C9465000C9465000C9465006C
:100080000C9465000C9465000C94650011241FBE4F
:10009000CFEFD0E4DEBFCDBF11E0A0E0B1E0E4EDF2
:1000A000F4E000E00BBF02C007900D92A231B1074F
:1000B000D9F721E0A2E1B1E001C01D92A532B2075B
:1000C000E1F70E946E010C9468020C940000CF933B
:1000D000DF9300D01F92CDB7DEB789837B836A831D
:1000E00089818A3031F48A819B81BC018DE00E9434
:1000F000670080EC90E0FC018081882F90E08072A6
:100100009927892BB1F386EC90E02981FC012083AB
:1001100080E090E00F900F900F90DF91CF910895C5
:10012000CF93DF93CDB7DEB781E890E02BE0FC0101
:10013000208388E890E02DE730E0FC0131832083C4
:100140008FE690E022E0FC01208384E890E0FC014F
:100150001182108280910E0190910F01A0911001E7
:10016000B09111018093130190931401A093150194
:10017000B09316018FE590E02FE530E0F901208182
:100180002068FC0120830000DF91CF910895CF9378
:10019000DF93CDB7DEB781E890E0FC01108200006C
:1001A000DF91CF910895CF93DF93CDB7DEB781E094
:1001B000809312010000DF91CF9108951F920F925A
:1001C00000905F000F92112400905B000F922F931C
:1001D0003F934F935F936F937F938F939F93AF93CF
:1001E000BF93EF93FF93CF93DF93CDB7DEB78091AB
:1001F000130190911401A0911501B091160101977E
:10020000A109B1098093130190931401A0931501E2
:10021000B09316018091130190911401A0911501E2
:10022000B0911601892B8A2B8B2B91F40E94D3005D
:1002300080910E0190910F01A0911001B0911101D8
:100240008093130190931401A0931501B0931601AC
:100250000000DF91CF91FF91EF91BF91AF919F91FE
:100260008F917F916F915F914F913F912F910F905F
:1002700000925B000F9000925F000F901F90189506
:10028000CF93DF9300D000D0CDB7DEB769837A83F8
:100290008B839C8389819A81AB81BC8180930E0181
:1002A00090930F01A0931001B093110180910E0162
:1002B00090910F01A0911001B09111018093130151
:1002C00090931401A0931501B093160100000F90B4
:1002D0000F900F900F90DF91CF910895CF93DF9300
:1002E000CDB7DEB784E290E02FEFFC01208385E2FA
:1002F00090E0FC01108281E290E0FC01108280E23B
:1003000090E02FEFFC01208310921E011092180143
:1003100061E070E080E090E00E9440010E94900067
:1003200080E290E0FC0180818095847080931901C7
:10033000109217010E94B0010E94BD010E94CA01E3
:100340000E94E00185E290E020911701FC012083EA
:100350000000809112018823E1F310921201E0CF96
:10036000CF93DF93CDB7DEB780911E018F5F80936F
:100370001E010000DF91CF910895CF93DF93CDB799
:10038000DEB7809118018F5F809318010000DF9124
:10039000CF910895CF93DF93CDB7DEB78091210140
:1003A000982F9770809122018870982B80911A0164
:1003B0008071892B809317010000DF91CF91089500
:1003C000CF93DF93CDB7DEB78091230190912401C5
:1003D0008130910581F08130910530F082309105B6
:1003E000C9F0039791F151C081E090E0909324010E
:1003F000809323014AC080911901843009F040C0E4
:1004000082E090E0909324018093230184E0809324
:100410001B0136C080911901843059F080911B0175
:10042000882339F481E090E09093240180932301A4
:1004300029C080911B018170882321F583E090E021
:1004400090932401809323011DC080911901843071
:1004500059F080911B01882339F481E090E090935A
:1004600024018093230110C080911B018170882397
:1004700059F482E090E0909324018093230104C01A
:10048000000003C0000001C0000080912301909192
:1004900024018230910531F082309105A0F003975C
:1004A00051F012C080E180931A0180911B018150AC
:1004B00080931B0109C010921A0180911B01815089
:1004C00080931B0101C000000000DF91CF910895CF
:0404D000F894FFCFCE
:1004D40000000002000000006700000000000100AE
:0204E400000016
:00000001FF
